:020000040800F2
:10000000C00400209D0100080D050008B10400088F
:1000100009050008E50100081512000800000000AD
:100020000000000000000000000000004106000881
:10003000E90100080000000091050008250C0008F7
:10004000B7010008B7010008B7010008B7010008B0
:10005000B7010008B7010008B7010008B7010008A0
:10006000B7010008B7010008B7010008B701000890
:10007000B7010008B7010008B7010008B701000880
:10008000B7010008B7010008B7010008B701000870
:10009000B7010008B7010008B7010008B701000860
:1000A000B7010008D90D0008B7010008B701000822
:1000B000B7010008B7010008B7010008B701000840
:1000C000B7010008B7010008B7010008B701000830
:1000D000B701000829110008B7010008B70100089E
:1000E000B7010008B7010008B7010008B701000810
:1000F000B7010008B7010008B7010008B701000800
:10010000B7010008B7010008B7010008B7010008EF
:10011000B7010008B7010008B7010008B7010008DF
:10012000B7010008B7010008B7010008B7010008CF
:10013000B7010008B7010008B7010008B7010008BF
:10014000B7010008B7010008B7010008B7010008AF
:10015000B7010008B7010008B7010008B70100089F
:10016000B7010008B7010008B7010008B70100088F
:10017000B7010008B7010008B7010008B70100087F
:10018000B7010008B7010008DFF80CD000F018F83C
:1001900000480047A5120008C00400200648804718
:1001A00006480047FEE7FEE7FEE7FEE7FEE7FEE75C
:1001B000FEE7FEE7FEE7FEE7810C00088901000884
:1001C000064C074D06E0E06840F0010394E80700A4
:1001D00098471034AC42F6D3FFF7DAFFCC1500088D
:1001E000DC150008FEE700007047000080B582B013
:1001F0001020012100F0FEF9FF2000900120C0F244
:100200000020019041F20000C4F20200694600F0B3
:10021000EFF802B080BD000080B5FFF7E7FF42F2C3
:10022000CF000021BDE88040AFF300802DE9F04110
:100230008AB00D460646022001214FF0010800F069
:10024000F1F90420012100F0D5F940F20044C4F294
:10025000010404F5823738460621032200F00CF928
:1002600038460721032200F007F938460821032207
:1002700000F002F938460921032200F0FDF84FF49E
:100280007070089040F20230C0F20010099008A986
:10029000384600F0ADF80696002605A92046ADF8D0
:1002A0001450ADF81C80ADF8166000F0E9FE602037
:1002B000C0F201006D46009020462946ADF80C6062
:1002C00000F0E6FD2046294600F01CFE20462946A7
:1002D00000F058FE2046294600F092FE20460121FB
:1002E00000F0B6FD2046082100F006FE2046082159
:1002F00000F040FE2046082100F07CFE2046082148
:1003000000F0A8FE2046012100F07AFD20460121E0
:100310006663A663E663266400F090FD0AB0BDE85C
:10032000F08100000138032888BF7047DFE800F043
:100330000218222C002040F288230029C8BF012087
:10034000CA0FC4F2422343F8082C43F8040C40F2CD
:100350000040C4F20100002948BF494200F088BEB5
:1003600040F288200129C4F2422021DB01220260F0
:10037000002223E040F288200129C4F2422027DB3A
:1003800001228260002229E0002040F28823002917
:10039000C8BF0120CA0FC4F242231A61586140F25B
:1003A0000040C4F20100002948BF494200F066BE87
:1003B0000A460023002918BF01220360426040F270
:1003C0000040C4F20100002948BF494200F052BE7B
:1003D0000A460023002918BF01228360C26040F250
:1003E0000040C4F20100002948BF494200F044BE69
:1003F0002DE9F041D1F8008000234FF0030C4FF0BD
:10040000010E00240FE000BFC268AA43C260CA798F
:10041000C5689A402A43C2600134102C03F10203DC
:1004200008BFBDE8F08128FA04F5ED07F4D00668AE
:100430000CFA03F5AE4306600E79076806FA03F27C
:10044000013E3A43012E0260DED88268EE4332401C
:1004500082604A798E7987689A403A43826042681E
:100460000EFA04F7BA43426006FA04F2466892B202
:1004700032434260C8E700001C2303EA810C6FF09E
:10048000030303EA510108440F23016A03FA0CF342
:1004900099430162016A02FA0CF21143016270474A
:1004A000018370474FF6FF710022C0E900127047C8
:1004B000FEE70000B0B582B02020012100F09AF8DC
:1004C00040F20130C0F2001041F2004401904FF4BC
:1004D0000070C4F202046D46009020462946FFF7E2
:1004E00087FF20464FF40071FFF7DAFF4FF480607A
:1004F000009020462946FFF77BFF20464FF480619D
:10050000FFF7CEFF02B0B0BDFEE70000704700006D
:1005100010B5C17800294EF20011CEF200011CD0B6
:100520004EF60C52CEF200021268072323EA122282
:100530000F23C2F1040C23FA02FE427884785FFA9A
:100540008CF390F800C09A4004EA0E031A4312019B
:1005500001EB0C0383F8002300E0803100780123D5
:1005600000F01F0203FA02F2C0F3421041F820200B
:1005700010BD000040F080604EF60C5140F0FD7060
:10058000CEF200010860704700000000000000008B
:10059000EFF30980BFF36F8F154B1A681EF0100F31
:1005A00008BF20ED108A20E9F04F10602DE9090006
:1005B0004FF0500080F31188BFF34F8FBFF36F8F60
:1005C00000F0F0FE4FF0000080F31188BDE8090054
:1005D00019680868B0E8F04F1EF0100F08BFB0ECC3
:1005E000108A80F30988BFF36F8F704700BF00BF88
:1005F00030000020002943F63001C4F202010A68ED
:100600000CBF22EA0000104308607047002943F63F
:100610004001C4F202010A680CBF22EA0000104344
:1006200008607047002943F64401C4F202010A68D9
:100630000CBF22EA00001043086070470000000071
:10064000074B19680868B0E8F04F80F30988BFF3DA
:100650006F8F4FF0000080F31188704700BF00BF1C
:100660003000002080B544F61F60532100F008F8E8
:1006700044F61F605321BDE8804000F079B80000C7
:100680002DE9F0418AB00D460646042001214FF0C5
:100690000108FFF7BBFF08200121FFF7ABFF40F681
:1006A0000004C4F2000404F5013738460C2102228C
:1006B000FFF7E2FE38460D210222FFF7DDFE384645
:1006C0000E210222FFF7D8FE38460F210222FFF743
:1006D000D3FE4FF47040089040F20230C0F2001098
:1006E000099008A93846FFF783FE0696002605A95B
:1006F0002046ADF81450ADF81C80ADF8166000F03F
:10070000BFFC6020C0F201006D46009020462946E3
:10071000ADF80C6000F0BCFB2046294600F0F2FB6F
:100720002046294600F02EFC2046294600F068FCB1
:100730002046082100F0E0FB2046082100F01AFCCA
:100740002046082100F056FC2046082100F082FCDB
:100750002046012100F054FB204601216663A66378
:10076000E663266400F06AFB0AB0BDE8F081000091
:100770002DE9F0438BB00D460646082001214FF0CD
:100780000109FFF743FF01200121FFF733FF40F686
:100790000044C4F2000404F5FA373846002102226E
:1007A0004FF00008FFF768FE384601210222FFF7EC
:1007B00063FE0320099040F20230C0F200100A905C
:1007C00009A93846FFF714FE06A920460796ADF89A
:1007D0001850ADF82090ADF81A8000F051FC602060
:1007E000C0F2010001AD019020462946ADF810800D
:1007F00000F04EFB2046294600F084FB20460821ED
:1008000000F07AFB2046082100F0B4FB20460121CD
:1008100000F0F6FA20460121C4F83480C4F838808C
:1008200000F00CFB0BB0BDE8F083000071B9B5EE31
:10083000400AF1EE10FA09DB9FED301AB4EE410ADE
:10084000F1EE10FA02DC9FED2D1A16E09FED2C1A46
:10085000B5EE400AF1EE10FA4FF00003B4EE410A93
:100860004FF00002A8BF0123F1EE10FAD8BF012219
:1008700001291FD153EA02011CD00138052888BF85
:10088000704780EE010A9FED1F1A9FED1F2A20EE90
:10089000010A30EE020ABDEEC00A10EE101ADFE8BF
:1008A00000F0030A10161C2440F60000C4F20000F9
:1008B00000F0DEBB704740F60000C4F2000000F01C
:1008C000D9BB40F60000C4F2000000F0D5BB40F6F2
:1008D0000000C4F2000000F0D1BB40F60000C4F2FA
:1008E000000000F5806000F0C3BB40F60000C4F2D9
:1008F000000000F5806000F0BDBB00BF0000344385
:10090000000087430000FA440000FA4370B5202439
:10091000C4F201042088C0070FD040F20805C2F2DB
:1009200000052868A988884201D2461C04E00120FD
:100930000021002600F022FA2E602088C0060FD584
:1009400040F21005C2F200052868A988884201D249
:10095000461C04E002200021002600F00FFA2E6061
:100960002088C0050FD540F21805C2F2000528689E
:10097000A988884201D2461C04E0032000210026F9
:1009800000F0FCF92E602088C00458BF70BD40F212
:100990002004C2F200042068A188884202D2451CCB
:1009A000256070BD04200021002500F0E7F92560D6
:1009B00070BD000010B582B040200121FFF71AFE83
:1009C0006C462046FFF76EFD3C2000900120C0F2EF
:1009D0000020019041F60000C4F202002146FFF71A
:1009E00007FD02B010BD000080B5FFF7E3FF40F245
:1009F000E730A721BDE88040AFF300802DE9F0414A
:100A00008CB088460646012001210125FFF70AFE29
:100A100010200121FFF7EEFD4FF4D44000240A908E
:100A200040F20230C4F20104C0F2001004F588372D
:100A30000B900AA93846FFF7DBFC38460921012252
:100A4000FFF71AFD38460B210122FFF715FD384646
:100A50000D210122FFF710FD38460E210122FFF77C
:100A60000BFDADF82450002507A920460896ADF8E7
:100A70001C80ADF81E508DF8265000F001FB702050
:100A8000C0F2010002AF029020463946ADF8145082
:100A900000F0FEF92046394600F034FA2046394687
:100AA00000F070FA2046394600F0AAFA40F21930F8
:100AB000C0F20010019001A8FFF72AFD2046012195
:100AC00000F028FB2046314600F0D0FA204641468F
:100AD000012200F0C7FA20460121002200F0D0F9DF
:100AE0002046012100F0B4F92046082100F004FA64
:100AF0002046082100F03EFA2046082100F07AFA4C
:100B00002046082100F0A6FA2046012100F078F9DD
:100B10002046002100226563A563E563256400F09B
:100B200079F920460421002200F074F920460821BA
:100B3000002200F06FF920460C21002200F06AF933
:100B40002046012100F07AF90CB0BDE8F0810000E8
:100B5000B0B505460138032852D8DFE800F0021688
:100B60002A3E40F28820C4F2432001604FF4C8704E
:100B700040F208015043C2F2000188800020C4F214
:100B80000100194600F074FA3AE040F28820C4F2FD
:100B9000432041604FF4C87040F210015043C2F24C
:100BA000000188800020C4F20100194600F062FABA
:100BB00026E040F28820C4F2432081604FF4C870E0
:100BC00040F218015043C2F2000188800020C4F2B4
:100BD0000100194600F050FA12E040F28820C4F2F9
:100BE0004320C1604FF4C87040F220015043C2F26C
:100BF000000188800020C4F20100194600F03EFA8E
:100C000028460121BDE8B04000F0B8B84EF210010E
:100C1000CEF200010A68042822F0040208BF043260
:100C20000A60704780B54FF0500080F31188BFF321
:100C30006F8FBFF34F8F00F0F9FB30B14EF60450C9
:100C4000CEF200004FF080510160002080F3118847
:100C500080BD000010B504466FF00400FFF7D6FF1A
:100C600040F22C01E008C2F2000108704FF47A71E2
:100C7000484340F22A01C2F20001088010BD000082
:100C800082B04EF6885CCEF2000CDCF8002043F611
:100C9000000142F47002C4F20201CCF800200A689C
:100CA0004FF6FF7042F001020A6000228A600B6872
:100CB000CFF6F6601840086043F21000C2F2004020
:100CC0004860086820F480200860CA6001920092A1
:100CD000086840F480300860086800F40030009034
:100CE000019801300190009818B90198B0F5A04F13
:100CF000F2D10868800354BF0020012000900098C2
:100D0000012834D1086C40F08050086447F200009C
:100D1000C4F20000026842F44042026088688860C1
:100D2000886840F400408860886840F4A05088607B
:100D300045F20840C0F240704860086840F080709A
:100D4000086000BF08688001FCD540F20570C1F85A
:100D50000004886820F003008860886840F0020082
:100D6000886000BF886800F00C000828FAD14FF0B6
:100D700000604CF8800C02B070470000B0B501383C
:100D800000240D460328C4F2010414D8DFE800F063
:100D90000205080B2046002107E02046042104E05C
:100DA0002046082101E020460C21012D14BF00221D
:100DB000012200F02FF8012D03D1208C08B101226F
:100DC00004E0208C002818BFB0BD0022204601217D
:100DD000BDE8B04000F054B810B50024C4F20104DE
:100DE0002046012100F040F8002808BF10BDFFF7A1
:100DF0008DFD20460121BDE8104000F01BB8000029
:100E00000288002918BF012122F0800242EAC111A4
:100E10000180704780B54FF0010CB0F820E00CFA6B
:100E200001F32EEA03030384038C02FA01F1194350
:100E3000018480BDC94301827047000002880029F7
:100E400018BF012122F00102114401807047000007
:100E5000B0F84420002918BF01216FF3DF3242EAC5
:100E6000C131A0F844107047028A80890A4000EA24
:100E7000010018BF0122002818BF01201040704750
:100E8000002A82890CBF22EA010111438181704747
:100E9000B0B5028C40F2004522F001020284038CBE
:100EA00040F48064C4F201058288B0F818C0AC42F6
:100EB0008C8923F002034D88B1F800E043EA040373
:100EC00043EA05030DD1CC8923F00C0324F004047C
:100ED0008D8823430C8A2B4322F440724D8A22438F
:100EE0002A432CF0730545EA0E0582800583896844
:100EF00041630384B0BD0000028B22F0080211435D
:100F000001837047B0B5028C40F2004522F0100218
:100F1000028440F48064C4F20105038C8288B0F836
:100F200018E0AC428C894D88B1F800C023F0200352
:100F300044EA050443EA041311D1CC896FF040055B
:100F400023F0C00305EA04148D88234343EA051304
:100F50000C8A4D8A22F440622C4342EA84022EF429
:100F6000E64545EA0C258280058389688163038410
:100F7000B0BD0000028B22F4006242EA012101832D
:100F800070470000B0B5028C40F2004522F4807238
:100F9000028440F48064C4F20105038C8288B0F8B6
:100FA0001CE0AC428C894D88B1F800C023F400737A
:100FB00044EA050443EA042311D1CC8940F2FF45F9
:100FC000240223F44063AC438D88234343EA052382
:100FD0000C8A4D8A22F440522C4342EA04122EF02D
:100FE000730545EA0C05828085838968C1630384A3
:100FF000B0BD0000828B22F008021143818370474C
:10100000F0B5028C40F2004722F480520284038C37
:101010008288B0F81CE0B1F800C08C894D8840F49B
:101020008066C4F20107BE4204D10E8A22F48042D7
:1010300042EA86122EF4E64747EA0C27828087832D
:1010400023F400532C43896843EA04320164028488
:10105000F0BD0000828B22F4006242EA012181830C
:10106000704700000185828270470000C1627047AE
:101070004163704781637047C16370470164704783
:1010800010B540F6FF32B0F800E0C4F2000240F2C2
:10109000004C9042C4F2010C0FDCB0F1804F19D02B
:1010A00040F20042C4F20002904213D040F6000227
:1010B000C4F2000290420DD011E040F60042C4F2AA
:1010C0000002904206D0604504D00022C4F2010222
:1010D000904204D14A882EF0700342EA030E41F296
:1010E000004340F48062C4F200039A4204D00C89A9
:1010F0002EF4407344EA030EA0F800E04B6862450A
:10110000C3620B88038504BF897A0186012181822D
:1011100010BD00000288002918BF012122F004023E
:1011200042EA81010180704710B541F20004C4F227
:101130000104204640F2255100F04CF8A0B32046AF
:1011400000F060F840F22803C2F200031A7840F27F
:10115000000CC2F2000C0CF80200C1B2501C002AB4
:1011600018BF02467B2908BF0246D0B205281A7074
:1011700010D19CF8040000227D281A700AD19CF836
:10118000010040F20502BCF80230C2F20002107009
:10119000A2F80130204600F039F800BF2046802137
:1011A00000F012F80028F9D0204640F22551BDE8A1
:1011B000104000F001B80000090A012202FA01F112
:1011C000C9430180704700000088084018BF012013
:1011D00070470000C1F34212022A06D0012A14BF50
:1011E00000F1140200F10C0201E000F1100212887B
:1011F000008801F01F03090ADA40C840104000F0DF
:101200000100704780886FF35F2070476FF35F21A4
:1012100081807047FEE7000010B547F65D1242433B
:10122000130E4FF407724EF2100103FB120E40F240
:101230002A0CCEF20001C2F2000C16D0BCF800005D
:10124000424300204A6088600C6844F001040C604E
:101250000C6804F00114012CFAD00C68013B24F056
:1012600001040C601C068860ECD15FEA0E4008BFE8
:1012700010BDBCF800001FFA8EF2504348600020F9
:101280008860086840F00100086000BF086800F04E
:1012900001100128FAD0086820F001000860002041
:1012A000886010BDA820FFF7D5FC4FF4A060FFF7C1
:1012B00061F9FFF7FFF8FEF7AFFFFFF795FBFFF7C8
:1012C000D1F90120002101224FF4FA73FFF740FC0D
:1012D0000220002101224FF4FA73FFF739FC0320AA
:1012E000002101224FF4FA73FFF732FC04200121A0
:1012F00001224FF4FA73FFF72BFC9FED188A9FED44
:10130000189A4FF24844CFF6FF7400BF0120B0EEA8
:10131000480A0021FFF78AFA4FF47A70FFF77CFF42
:101320000220B0EE490A0121FFF780FA4FF47A70EB
:10133000FFF772FF01202146FEF7F4FF022040F67E
:10134000B831FEF7EFFF032040F6B831FEF7EAFFB1
:10135000042040F6B831FEF7E5FFD7E70000B442BD
:1013600000004843D0E9013201699A60D1F804C015
:1013700082688445536008BF4A600B68002202619E
:10138000581E0860704700004268D0F800C093689B
:101390004A608B6093689160596008610CF10101AB
:1013A0000160704740F2A400C2F20000006830B152
:1013B00040F2B800C2F2000001210160704740F223
:1013C000B800C2F200000021016040F2A800C2F2A1
:1013D00000000068B0FA80F0C0B2C0F11F0040F217
:1013E0003C0100EB8000C2F2000151F8202092B1D4
:1013F00001EB800050F8041F4968021D9142016012
:1014000001D149680160006840F23001C068C2F251
:101410000001086070474FF0500080F31188BFF35F
:101420006F8FBFF34F8F00BFFEE700002DE9F04F35
:1014300081B040F2A400C2F20000006840B140F266
:10144000A000C2F200000168002401310160A1E0A7
:1014500040F2B400C2F2000001684E1C06602ED3B8
:1014600040F23400C2F200000168096849B14FF04F
:10147000500080F31188BFF36F8FBFF34F8F00BF11
:10148000FEE740F23802C2F200020168136803600E
:10149000116040F2B001C2F200010A6801320A6034
:1014A0000168096821B10068C068C068406801E04F
:1014B0004FF0FF3040F2AC01C2F20001086040F290
:1014C000AC01C2F20001086840F2300A8642C2F262
:1014D000000A01D200244FE040F2340BC2F2000BAC
:1014E000DBF8000000240068E0B340F2A8090127FF
:1014F000C2F2000920E000BFD8F82C00D9F8001093
:1015000007FA00F21143C9F8001040F23C0100EB69
:101510008000C2F2000101EB80002946FFF734FF92
:10152000D8F82C00DAF80010C96ADBF800208842ED
:10153000106828BF3C46C0B1DBF80000C068D0F896
:101540000C80454655F8040F864210D32846FFF715
:1015500009FFD8F828000028CED008F11800FFF7BE
:1015600001FFC9E74FF0FF3005E04FF0FF3040F2D8
:10157000AC01C2F200010860DAF8000040F23C0160
:10158000C06AC2F2000100EB800051F8200001287F
:1015900088BF012440F2B800C2F2000000680028B1
:1015A00018BF0124204601B0BDE8F08F02E008C852
:1015B000121F08C1002AFAD170477047002001E0CD
:1015C00001C1121F002AFBD170470000DC15000882
:0C15D00000000020C0040000BC15000852
:040000050800018965
:00000001FF
